{
  "contractName": "Constructor",
  "abi": [
    {
      "inputs": [],
      "payable": false,
      "stateMutability": "nonpayable",
      "type": "constructor"
    },
    {
      "constant": true,
      "inputs": [],
      "name": "caller",
      "outputs": [
        {
          "name": "",
          "type": "uint256"
        }
      ],
      "payable": false,
      "stateMutability": "view",
      "type": "function"
    }
  ],
  "bytecode": "0x60606040523415600e57600080fd5b600f600081905550609f806100246000396000f300606060405260043610603f576000357c0100000000000000000000000000000000000000000000000000000000900463ffffffff168063fc9c8d39146044575b600080fd5b3415604e57600080fd5b6054606a565b6040518082815260200191505060405180910390f35b600080549050905600a165627a7a723058205df25b92bc79b53dde7fafcabdfe9bd2483e886e7f5f3e428320f6b61ac96e6a0029",
  "source": "pragma solidity ^0.4.17;\n\ncontract Constructor {\n\n  //publicly accessible variable I can set from within constructor\n  uint public caller;\n\n  function Constructor() public {\n    caller = 15;\n  }\n\n  //\n  //uncommenting this should result in a compiler error as Contracts may only have one constructor\n  //\n  //function Constructor(address contractCaller) public {\n  //  caller = contractCaller;\n  //}\n\n  function caller() public view returns (uint){\n    return caller;\n  }\n}\n",
  "sourcePath": "/Users/abc/crypto-currency/ethereum/tutorials/ethereum-solidity-koans/contracts/Constructor.sol",
  "compiler": {
    "name": "solc",
    "version": "0.4.19+commit.c4cbbb05.Emscripten.clang"
  },
  "schemaVersion": "1.0.1",
  "updatedAt": "2018-03-06T04:13:21.039Z"
}