{
  "contractName": "Events",
  "abi": [
    {
      "constant": true,
      "inputs": [],
      "name": "_totalDonations",
      "outputs": [
        {
          "name": "",
          "type": "uint256"
        }
      ],
      "payable": false,
      "stateMutability": "view",
      "type": "function"
    },
    {
      "anonymous": false,
      "inputs": [
        {
          "indexed": false,
          "name": "bidder",
          "type": "address"
        },
        {
          "indexed": false,
          "name": "donation",
          "type": "uint256"
        }
      ],
      "name": "DonationReceived",
      "type": "event"
    },
    {
      "constant": false,
      "inputs": [
        {
          "name": "bidder",
          "type": "address"
        },
        {
          "name": "donation",
          "type": "uint256"
        }
      ],
      "name": "Donate",
      "outputs": [],
      "payable": false,
      "stateMutability": "nonpayable",
      "type": "function"
    }
  ],
  "bytecode": "0x6060604052341561000f57600080fd5b61016c8061001e6000396000f30060606040526004361061004c576000357c0100000000000000000000000000000000000000000000000000000000900463ffffffff1680630553260a146100515780632102df3114610093575b600080fd5b341561005c57600080fd5b610091600480803573ffffffffffffffffffffffffffffffffffffffff169060200190919080359060200190919050506100bc565b005b341561009e57600080fd5b6100a661013a565b6040518082815260200191505060405180910390f35b8060008082825401925050819055507f264f630d9efa0d07053a31163641d9fcc0adafc9d9e76f1c37c2ce3a558d2c528282604051808373ffffffffffffffffffffffffffffffffffffffff1673ffffffffffffffffffffffffffffffffffffffff1681526020018281526020019250505060405180910390a15050565b600054815600a165627a7a723058203989e943cb94c345531d9b5f3c78b3c4aed258b5afd2adc539a1f05a1ee875640029",
  "source": "pragma solidity ^0.4.4;\n\ncontract Events {\n\n  //current total donations\n  uint public _totalDonations;\n\n  //event for anyone to be informed when a donation is received\n  event DonationReceived(address bidder, uint donation);\n\n  function Donate(address bidder, uint donation) public {\n    _totalDonations += donation;\n\n    //broadcast the donation for any listeners\n    DonationReceived(bidder, donation);\n  }\n}\n",
  "sourcePath": "/Users/abc/crypto-currency/ethereum/tutorials/ethereum-solidity-koans/contracts/Events.sol",
  "compiler": {
    "name": "solc",
    "version": "0.4.19+commit.c4cbbb05.Emscripten.clang"
  },
  "schemaVersion": "1.0.1",
  "updatedAt": "2018-03-09T03:33:30.016Z"
}